:100000000C942A000C9447000C9447000C94470071
:100010000C94C5050C9447000C9447000C9477058C
:100020000C949E050C9447000C9450050C944700CA
:100030000C9447000C9447000C9447000C94470024
:100040000C942E020C9447000C9447000C9447002B
:100050000C94470011241FBECFE5D8E0DEBFCDBF12
:1000600010E0A0E6B0E0EEE3FEE002C005900D92E5
:10007000AA36B107D9F720E0AAE6B0E001C01D9288
:10008000AF38B207E1F70E9449000C941D070C94A9
:10009000000085E690E00E94B50180E690E00E94B5
:1000A000B50142E36FE180E00E94E70146E46EE1C2
:1000B00081E00E94E701FFCF609179008FEF689F98
:1000C000B0011124072E000C880B990B0E94910699
:1000D00020E030E048EC52E40E94EE050E94600609
:1000E0006115710561F16F3F710591F12091720009
:1000F0002223A1F0213009F051C0209170003091ED
:10010000710062177307A9F12130310579F121508F
:100110003109309371002093700008952091700090
:10012000309171006217730769F12F3F3105A1F01B
:100130002F5F3F4F3093710020937000089580919E
:10014000760060E00E94E80282E0809372000895E9
:1001500082E080937200089581E0809372008EEFB8
:1001600090E0909371008093700008951092720057
:10017000CECF809176000E9469032091700030916B
:100180007100C5CFAB014F5F5F4F5093710040933B
:100190007000809176000E9469030895089560912F
:1001A0007A008FEF689FB0011124072E000C880B96
:1001B000990B0E94910620E030E048EC52E40E9446
:1001C000EE050E9460066115710561F16F3F7105D2
:1001D00091F120916F002223A1F0213009F051C04C
:1001E00020916D0030916E0062177307A9F12130E4
:1001F000310579F12150310930936E0020936D0063
:10020000089520916D0030916E006217730769F1B7
:100210002F3F3105A1F02F5F3F4F30936E002093A9
:100220006D0008958091770060E00E94E80282E00E
:1002300080936F00089582E080936F00089581E0BD
:1002400080936F008EEF90E090936E0080936D002E
:10025000089510926F00CECF809177000E946903BD
:1002600020916D0030916E00C5CFAB014F5F5F4FA5
:1002700050936E0040936D00809177000E94690357
:100280000895089560917B008FEF689FB00111245D
:10029000072E000C880B990B0E94910620E030E09D
:1002A00048EC52E40E94EE050E946006611571055B
:1002B00061F16F3F710591F120916C002223A1F053
:1002C000213009F051C020916A0030916B00621713
:1002D0007307A9F12130310579F1215031093093AB
:1002E0006B0020936A00089520916A0030916B00A2
:1002F0006217730769F12F3F3105A1F02F5F3F4F60
:1003000030936B0020936A0008958091780060E03C
:100310000E94E80282E080936C00089582E080935E
:100320006C00089581E080936C008EEF90E09093D4
:100330006B0080936A00089510926C00CECF80917C
:1003400078000E94690320916A0030916B00C5CF4C
:10035000AB014F5F5F4F50936B0040936A008091F9
:1003600078000E94690308950895CF93DF9300D029
:1003700000D0CDB7DEB7FC012081213039F00F90DD
:100380000F900F900F90DF91CF910895218123302E
:10039000B1F72281233098F7222391F0FC013481B8
:1003A000213091F030937300FC01298383818A838B
:1003B00081E08B838C83CE0101960E94A503DFCF61
:1003C000348130937500F0CF30937400EDCF1F93DC
:1003D000CF93DF93C82FD62F142F61E070E08D2FBD
:1003E00090E00E94670261E08D2F0E94E802CC231A
:1003F00041F0C13031F1C230A1F0DF91CF911F91B6
:10040000089510937B006091750070E042E451E024
:1004100080E00E94F703D0937800DF91CF911F9185
:100420000895109379006091730070E04CE550E0FE
:1004300082E00E94F703D0937600DF91CF911F9165
:10044000089510937A006091740070E04FEC50E0D2
:1004500081E00E94F703D0937700CFCF1F920F92D5
:100460000FB60F9211242F933F934F935F936F9387
:100470007F938F939F93AF93BF93EF93FF9361E02D
:1004800070E08AE190E00E9467028AE190E00E94B9
:10049000690388E088BF80917C0090917D00892B62
:1004A00029F0E0917C00F0917D000995FF91EF919A
:1004B000BF91AF919F918F917F916F915F914F917C
:1004C0003F912F910F900FBE0F901F901895803283
:1004D000F0F4982F97708695869586958F5B833478
:1004E000C1F0843409F442C0823479F14AB321E086
:1004F00030E061111FC0B90102C0660F771F9A95E5
:10050000E2F7CB01809584238ABB80E0089581E0E7
:10051000089544B321E030E0611138C0B90102C050
:10052000660F771F9A95E2F7CB018095842384BBF1
:1005300080E00895B90102C0660F771F9A95E2F72F
:10054000CB01842B8ABB80E0089547B321E030E0E3
:10055000611127C0B90102C0660F771F9A95E2F7B3
:10056000CB018095842387BB80E0089541B321E0CF
:1005700030E0662309F1B90102C0660F771F9A9532
:10058000E2F7CB01842B81BB81E00895B90102C061
:10059000660F771F9A95E2F7CB01842B84BB80E02E
:1005A0000895B90102C0660F771F9A95E2F7CB0153
:1005B000842B87BB80E00895B90102C0660F771FC6
:1005C0009A95E2F7CB018095842381BB81E0089561
:1005D0008032F0F4982F97708695869586958F5B7C
:1005E0008334C1F0843409F442C0823479F14BB3CE
:1005F00021E030E061111FC0B90102C0660F771F12
:100600009A95E2F7CB01809584238BBB80E0089517
:1006100081E0089545B321E030E0611138C0B901AF
:1006200002C0660F771F9A95E2F7CB01809584236D
:1006300085BB80E00895B90102C0660F771F9A95C7
:10064000E2F7CB01842B8BBB80E0089548B321E017
:1006500030E0611127C0B90102C0660F771F9A957B
:10066000E2F7CB018095842388BB80E0089542B3F4
:1006700021E030E0662309F1B90102C0660F771F5F
:100680009A95E2F7CB01842B82BB80E00895B901F3
:1006900002C0660F771F9A95E2F7CB01842B85BBCA
:1006A00080E00895B90102C0660F771F9A95E2F7BE
:1006B000CB01842B88BB80E00895B90102C0660F8E
:1006C000771F9A95E2F7CB018095842382BB80E067
:1006D00008958032B8F4282F2770869586958695E0
:1006E0008F5B833489F0843429F18234C1F03BB3C9
:1006F00081E090E001C0880F2A95EAF783278BBB41
:1007000080E0089581E0089535B381E090E001C074
:10071000880F2A95EAF7832785BB80E0089538B3D0
:1007200081E090E001C0880F2A95EAF7832788BB13
:1007300080E0089532B381E090E001C0880F2A95EF
:10074000EAF7832782BB80E00895FC01892B81F1C1
:100750009081292F30E0D901AA57BF4F8C91813069
:1007600049F0933030F48281833018F44381423071
:1007700010F081E0089551815830D8F751E05C9332
:10078000D901A757BF4F8C93D901A457BF4F4C93A2
:10079000913081F09230D9F485B5886085BD828131
:1007A000813001F18381813019F48FB780688FBF68
:1007B00080E008958FB58FBD8EB588608EBD828133
:1007C000813081F79EB58181892B8EBDEBCF83B7B8
:1007D000886083BF8281813029F793B78181892B1B
:1007E00083BFE0CF95B58181892B85BDDBCF81307B
:1007F00009F444C020F1823001F580918B008130F2
:1008000009F4CEC08111A5C095B5926095BD9091B7
:100810008E009111D0C06115710569F080E090E003
:1008200030E821E038BF23BD08B607FEFDCF0196B2
:1008300068177907B9F780E0089581E008958091FD
:100840008900813009F4A1C0811167C093B792601B
:1008500093BF90918C009111BCC06115710559F343
:1008600080E090E032E021E038BF2CBF08B601FE06
:10087000FDCF019668177907B9F7DDCF80918A001F
:100880008130E1F081112BC09EB592609EBD9091A8
:100890008D009111ACC06115710569F280E090E0A6
:1008A00040E121E030E048BF3BBD2ABD08B604FE70
:1008B000FDCF019668177907B1F7BDCF8091890008
:1008C000813009F0B8CF80918C008111DFC080E1C8
:1008D00088BF7BBD6ABD08B601FEFDCFACCF8230BC
:1008E00009F0A9CF8EB583608EBD80918D008111F6
:1008F0008FC06115710509F49ECF80E090E040E162
:100900002DE730E048BF3BBD2ABD08B604FEFDCF51
:10091000019668177907B1F78ECF823009F08BCF37
:1009200093B7936093BF90918C00911183C0611530
:10093000710509F480CF80E090E032E02DE738BF08
:100940002CBF08B601FEFDCF019668177907B9F7ED
:1009500072CF823009F06FCF85B5846085BD8091FC
:100960008E00811176C06115710509F464CF80E0B5
:1009700090E030E82DE738BF23BD08B607FEFDCF75
:10098000019668177907B9F756CF80918C008111CD
:1009900076C082E088BF6CBF08B601FEFDCF4BCFAA
:1009A00080918E00811164C080E888BF63BD08B665
:1009B00007FEFDCF40CF913009F03DCF20E828BFA2
:1009C00093BD99B7906899BF50937F0040937E0084
:1009D0000895913009F02FCF22E028BF9CBF99B72E
:1009E000926099BF509385004093840008959130A0
:1009F00009F021CF90E198BF21E030E03BBD2ABD56
:100A000099B7906199BF50938300409382000895F5
:100A1000813009F010CF80E188BF8DE790E09BBD69
:100A20008ABD89B7806189BF50938300409382005B
:100A300080E00895913009F0FECE88BF8DE78CBF2D
:100A400089B7826089BF509385004093840080E01D
:100A50000895813009F0EFCE80E888BF8DE783BD2F
:100A600089B7806889BF50937F0040937E00E3CEB2
:100A7000813009F0E0CE80E888BF63BDF1CF8130DE
:100A800009F0D9CE82E088BF6CBFDACF80918D00AB
:100A9000813009F0D0CE80E188BF7BBD6ABDC1CF77
:100AA0001F920F920FB60F9211242F933F934F93E3
:100AB0005F936F937F938F939F93AF93BF93EF93C6
:100AC000FF93E0918400F09185000995FF91EF91EB
:100AD000BF91AF919F918F917F916F915F914F9156
:100AE0003F912F910F900FBE0F901F9018951F925E
:100AF0000F920FB60F9211242F933F934F935F9352
:100B00006F937F938F939F93AF93BF93EF93FF93D5
:100B1000E0918200F09183000995FF91EF91BF91E0
:100B2000AF919F918F917F916F915F914F913F9185
:100B30002F910F900FBE0F901F9018951F920F923C
:100B40000FB60F9211242F933F934F935F936F93A0
:100B50007F938F939F93AF93BF93EF93FF93E09116
:100B60008000F09181000995FF91EF91BF91AF91C5
:100B70009F918F917F916F915F914F913F912F91B5
:100B80000F900FBE0F901F9018951F920F920FB6E7
:100B90000F9211242F933F934F935F936F937F9303
:100BA0008F939F93AF93BF93EF93FF93E0917E005A
:100BB000F0917F00099580E888BFFF91EF91BF9188
:100BC000AF919F918F917F916F915F914F913F91E5
:100BD0002F910F900FBE0F901F9018950E94020644
:100BE0000C94E3060E94DC0658F00E94D50640F003
:100BF00029F45F3F29F00C94CC0651110C9417078F
:100C00000C94D2060E94F40668F39923B1F355239D
:100C100091F3951B550BBB27AA276217730784070F
:100C200038F09F5F5F4F220F331F441FAA1FA9F3A5
:100C300035D00E2E3AF0E0E832D091505040E69593
:100C4000001CCAF72BD0FE2F29D0660F771F881FF4
:100C5000BB1F261737074807AB07B0E809F0BB0BE7
:100C6000802DBF01FF2793585F4F3AF09E3F5105FB
:100C700078F00C94CC060C9417075F3FE4F3983E91
:100C8000D4F3869577956795B795F7959F5FC9F7E4
:100C9000880F911D9695879597F90895E1E0660F65
:100CA000771F881FBB1F621773078407BA0720F0DE
:100CB000621B730B840BBA0BEE1F88F7E095089547
:100CC0000E94FC0688F09F5798F0B92F9927B751DA
:100CD000B0F0E1F0660F771F881F991F1AF0BA95E0
:100CE000C9F714C0B13091F00E941607B1E0089521
:100CF0000C941607672F782F8827B85F39F0B93F13
:100D0000CCF3869577956795B395D9F73EF4909592
:100D10008095709561957F4F8F4F9F4F0895E89410
:100D200009C097FB3EF490958095709561957F4F33
:100D30008F4F9F4F9923A9F0F92F96E9BB279395E1
:100D4000F695879577956795B795F111F8CFFAF4F1
:100D5000BB0F11F460FF1BC06F5F7F4F8F4F9F4F22
:100D600016C0882311F096E911C0772321F09EE880
:100D7000872F762F05C0662371F096E8862F70E0E6
:100D800060E02AF09A95660F771F881FDAF7880FC0
:100D90009695879597F9089597F99F6780E870E091
:100DA00060E008959FEF80EC089500240A941616E1
:100DB000170618060906089500240A941216130649
:100DC000140605060895092E0394000C11F48823D7
:100DD00052F0BB0F40F4BF2B11F460FF04C06F5FF3
:100DE0007F4F8F4F9F4F089557FD9058440F551FC9
:100DF00059F05F3F71F04795880F97FB991F61F09D
:100E00009F3F79F087950895121613061406551F13
:100E1000F2CF4695F1DF08C0161617061806991F7F
:100E2000F1CF86957105610508940895E894BB2774
:0E0E300066277727CB0197F90895F894FFCF36
:0A0E3E00010301037D010300037DA1
:00000001FF
