:100000000C942A000C942B060C9452060C9479063E
:100010000C9447000C9447000C9447000C94470044
:100020000C9447000C9447000C9447000C94470034
:100030000C9447000C9447000C9447000C94470024
:100040000C946D040C9447000C9447000C944700EA
:100050000C94470011241FBECFE5D8E0DEBFCDBF12
:1000600010E0A0E6B0E0E0EFF3E102C005900D92F1
:10007000AE37B107D9F720E0AEE7B0E001C01D927E
:10008000AA3AB207E1F70E9449000C94F6090C94D1
:100090000000CF93DF931F92CDB7DEB70E946E00B2
:1000A0000BC091EE980F933190F08E31A1F08E310C
:1000B00018F48FE00E948500CE0101960E94C800CE
:1000C0008981833370F384E60E947800F5CF82E360
:1000D0000E947800F1CF0E949200EECF0E94FD03B3
:1000E00080E790E00E94A4038CE690E00C94A403C7
:1000F000CF93C82F682F80E790E00E94DD036C2F1C
:100100008CE690E0CF910C94DD03CF93C82F682F3D
:1001100080E790E00E94ED036C2F8CE690E0CF9199
:100120000C94ED0380E790E00E94D0038CE690E011
:100130000E94D0032FEF81EE94E021508040904048
:10014000E1F700C000006FE080E790E00E94DD036F
:100150006FE08CE690E00E94ED032FEF85EA9EE0D1
:10016000215080409040E1F700C0000080E790E01F
:100170000E94D0038CE690E00E94D0032FEF81EE26
:1001800094E0215080409040E1F700C000000895C5
:100190000C940E04CF9390917E00992329F0913016
:1001A00069F4CF910C94A805C82F61E00E94A604C1
:1001B0008C2F0E94A80581E080937E00CF91089546
:1001C0008091850090918600A0918700B091880071
:1001D0000196A11DB11D8093850090938600A09388
:1001E0008700B09388000895CF93DF93C09160009B
:1001F000C13009F45FC080916000811158C0C09186
:100200007F00CC2309F4C0C0C13009F050C085E79D
:1002100090E00E94E40510927F0064E870E082E0C4
:1002200090E00E9443088091850090918600A09103
:100230008700B091880020918400880F991FAA1F21
:10024000BB1F820F911DA11DB11D880F991FAA1FF1
:10025000BB1F880F991FAA1FBB1F880F991FAA1FBA
:10026000BB1F880F991FAA1FBB1F880F991FAA1FAA
:10027000BB1F880F991FAA1FBB1FBC01CD01660FB2
:10028000771F881F991F0E94FB0820E030E040E0A4
:100290005EE30E9489090E94CC08609380007093FD
:1002A00081008093820090938300C0938900DF9146
:1002B000CF910895D0917F00DD2309F453C0D13050
:1002C000B1F764E870E082E090E00E94430880911A
:1002D000850090918600A0918700B09188002091C0
:1002E0008400880F991FAA1FBB1F820F911DA11D9B
:1002F000B11D880F991FAA1FBB1F880F991FAA1F26
:10030000BB1F880F991FAA1FBB1F880F991FAA1F09
:10031000BB1F880F991FAA1FBB1F880F991FAA1FF9
:10032000BB1FBC01CD01660F771F881F991F0E945C
:10033000FB0820E030E040E05EE30E9489090E9473
:10034000CC0860938000709381008093820090932A
:10035000830087E790E00E94E40510927F00D0932D
:100360008900A5CF82E00E94490810928500109272
:100370008600109287001092880085E790E00E9426
:10038000E405C0937F0093CF87E790E00E94E405E7
:1003900081E080937F0082E00E94490810928500EE
:1003A000109286001092870010928800DF91CF9102
:1003B000089510928900FC018081809360008091F3
:1003C0006000882399F0809160008130A1F084EF73
:1003D00090E00E94260689E790E00E94A00640EE89
:1003E00050E061E070E082E00C94F20685E790E076
:1003F0000E94E405ECCF87E790E00E94E405E7CF98
:100400004091800050918100609182007091830042
:10041000FC014083518362837383089580918D0032
:10042000882369F180918D008F3F71F1809169007F
:10043000833019F0843091F0089560918E0070E05F
:100440004EE052E082E00E94F20680918A0061E074
:100450000E94270584E080936900089560918D00D3
:1004600070E04EE052E082E00E94F20680918A0045
:1004700060E00E94270583E08093690008958091E1
:100480008A0060E00C94270580918A0061E00C945A
:10049000270580919100882369F1809191008F3F19
:1004A00071F180916B00833019F0843091F00895E0
:1004B0006091920070E049E452E080E00E94F20610
:1004C00080918C0061E00E94270584E080936B009E
:1004D00008956091910070E049E452E080E00E944C
:1004E000F20680918C0060E00E94270583E08093F3
:1004F0006B00089580918C0060E00C94270580913A
:100500008C0061E00C9427058FE10E94CA00809165
:100510008F00882369F180918F008F3F71F1809166
:100520006A00833019F0843091F008956091900052
:1005300070E044E852E081E00E94F20680918B0076
:1005400060E00E94270584E080936A00089560912E
:100550008F0070E044E852E081E00E94F206809152
:100560008B0061E00E94270583E080936A00089574
:1005700080918B0060E00C94270580918B0061E0F6
:100580000C9427050F931F93CF93DF9300D000D0D7
:10059000CDB7DEB78C01FC018081813099F061E03C
:1005A000F80184810E94A60460E0F80184810E9421
:1005B00027050F900F900F900F90DF91CF911F9113
:1005C0000F9108958181833051F78281833038F70C
:1005D000882391F0F8019481813091F090938A0002
:1005E0008983F80183818A8381E08B838C83CE01A8
:1005F00001960E94A006D3CF948190938C00F0CFF7
:1006000090938B00EDCFCF93C62F811127C080919F
:1006100068008617E1F08FEF689FB0011124072E64
:10062000000C880B990B0E94FD0820E030E048EC9C
:1006300052E40E945A080E94CC0860939100909165
:1006400091008EEF891B80939200C0936800809187
:100650006700813009F46AC0CF9108958130A1F11B
:100660008230D1F7809164006817E1F08FEF689FC6
:10067000B0011124072E000C880B990B0E94FD0875
:1006800020E030E048EC52E40E945A080E94CC0876
:1006900060938D0090918D008EEF891B80938E006A
:1006A000C0936400809163008130B1F682E00E94C3
:1006B000490860918D0070E04EE052E082E00E94B7
:1006C000F20610926300C8CF809166006817E1F0CF
:1006D0008FEF689FB0011124072E000C880B990B37
:1006E0000E94FD0820E030E048EC52E40E945A08E5
:1006F0000E94CC0860938F0090918F008EEF891B31
:1007000080939000C093660080916500813009F06D
:10071000A3CF0E94490860918F0070E044E852E046
:1007200081E00E94F2061092650096CF80E00E9460
:1007300049086091910070E049E452E080E00E9435
:10074000F2061092670088CF0F931F93CF93DF9329
:1007500000D000D01F92CDB7DEB78C0181E0898335
:1007600093E09A838B8385E08C83F80181818D836C
:10077000CE0101960E94C20261E0F80182810E94CE
:10078000A60461E0F80183810E94A6040F900F90F7
:100790000F900F900F90DF91CF911F910F910895BF
:1007A000CF93DF93EC0160E08A810E94270560E02F
:1007B0008B81DF91CF910C942705CF93DF93EC01D0
:1007C00081E00E94030361E08B810E94270560E0C5
:1007D0008A81DF91CF910C942705CF93DF93EC01B1
:1007E00081E00E94030361E08A810E94270560E0A6
:1007F0008B81DF91CF910C94270581E690E00E94D8
:10080000D90161E070E08FE090E00E94A60460E012
:1008100070E08FE090E00E94270508950F931F93EA
:10082000CF93DF9300D000D0CDB7DEB78C01198213
:100830001A821B821C82CE0101960E9400026981ED
:100840007A818B819C810E94FB0826E933E44BE886
:100850005CE30E9489090E94CC08F80160837183DF
:100860008283938380917400813011F1809189009B
:10087000813049F00F900F900F900F90DF91CF9142
:100880001F910F91089561E070E08FE090E00E9469
:100890002705E7ECF0E03197F1F700C0000060E0D9
:1008A00070E08FE090E00E94270510928900E2CF6F
:1008B00061E070E08FE090E00E94270587EC90E017
:1008C0000197F1F700C0000060E070E08FE090E079
:1008D0000E94270510927400C9CF1F920F920FB685
:1008E0000F9211242F933F934F935F936F937F93B6
:1008F0008F939F93AF93BF93EF93FF9361E070E06B
:100900008AE190E00E94A6048AE190E00E94A80596
:1009100088E088BF8091930090919400892B29F002
:10092000E0919300F09194000995FF91EF91BF91B0
:10093000AF919F918F917F916F915F914F913F9177
:100940002F910F900FBE0F901F9018958032F0F4EA
:10095000982F97708695869586958F5B8334C1F026
:10096000843409F442C0823479F14AB321E030E0A2
:1009700061111FC0B90102C0660F771F9A95E2F797
:10098000CB01809584238ABB80E0089581E008959F
:1009900044B321E030E0611138C0B90102C0660FF4
:1009A000771F9A95E2F7CB018095842384BB80E082
:1009B0000895B90102C0660F771F9A95E2F7CB013F
:1009C000842B8ABB80E0089547B321E030E06111B9
:1009D00027C0B90102C0660F771F9A95E2F7CB01D5
:1009E0008095842387BB80E0089541B321E030E007
:1009F000662309F1B90102C0660F771F9A95E2F7E5
:100A0000CB01842B81BB80E00895B90102C0660F41
:100A1000771F9A95E2F7CB01842B84BB80E0089581
:100A2000B90102C0660F771F9A95E2F7CB01842BBC
:100A300087BB80E00895B90102C0660F771F9A95C1
:100A4000E2F7CB018095842381BB80E0089580325A
:100A5000F0F4982F97708695869586958F5B8334F2
:100A6000C1F0843409F442C0823479F14BB321E0FF
:100A700030E061111FC0B90102C0660F771F9A955F
:100A8000E2F7CB01809584238BBB80E0089581E061
:100A9000089545B321E030E0611138C0B90102C0CA
:100AA000660F771F9A95E2F7CB018095842385BB6B
:100AB00080E00895B90102C0660F771F9A95E2F7AA
:100AC000CB01842B8BBB80E0089548B321E030E05C
:100AD000611127C0B90102C0660F771F9A95E2F72E
:100AE000CB018095842388BB80E0089542B321E048
:100AF00030E0662309F1B90102C0660F771F9A95AD
:100B0000E2F7CB01842B82BB80E00895B90102C0DB
:100B1000660F771F9A95E2F7CB01842B85BB80E0A7
:100B20000895B90102C0660F771F9A95E2F7CB01CD
:100B3000842B88BB80E00895B90102C0660F771F3F
:100B40009A95E2F7CB018095842382BB80E00895DB
:100B50008032B8F4282F27708695869586958F5B0E
:100B6000833489F0843429F18234C1F03BB381E0CD
:100B700090E001C0880F2A95EAF783278BBB80E0BD
:100B8000089581E0089535B381E090E001C0880FB9
:100B90002A95EAF7832785BB80E0089538B381E082
:100BA00090E001C0880F2A95EAF7832788BB80E090
:100BB000089532B381E090E001C0880F2A95EAF7EA
:100BC000832782BB80E00895FC019FB790689FBF98
:100BD000908191110DC081818330E1F0843021F446
:100BE00085B78C7F826085BF8BB780648BBF08958B
:100BF000913019F09230A9F0089581818330D1F0BD
:100C0000843021F485B7837F886085BF8BB7806887
:100C10008BBF089585B7836085BF8BB780648BBF1A
:100C200008958181833051F0843061F08BB7806208
:100C30008BBF089585B78C6085BFE8CF84B780648B
:100C400084BFF4CF84B78F7B84BFF0CF909396009E
:100C50008093950008951F920F920FB60F92112462
:100C60002F933F934F935F936F937F938F939F93B4
:100C7000AF93BF93EF93FF93E0919900F0919A00A7
:100C80000995FF91EF91BF91AF919F918F917F91C6
:100C90006F915F914F913F912F910F900FBE0F90E9
:100CA0001F9018951F920F920FB60F9211242F9339
:100CB0003F934F935F936F937F938F939F93AF93E4
:100CC000BF93EF93FF93E0919700F09198000995FF
:100CD000FF91EF91BF91AF919F918F917F916F9114
:100CE0005F914F913F912F910F900FBE0F901F90EA
:100CF00018951F920F920FB60F9211242F933F93C6
:100D00004F935F936F937F938F939F93AF93BF9313
:100D1000EF93FF93E0919500F09196000995FF9174
:100D2000EF91BF91AF919F918F917F916F915F9163
:100D30004F913F912F910F900FBE0F901F901895DC
:100D4000FC01892B81F19081292F30E0D901AF5529
:100D5000BF4F8C91813049F0933030F482818330E1
:100D600018F44381423010F081E0089551815830E9
:100D7000D8F751E05C93D901AC55BF4F8C93D901A2
:100D8000A955BF4F4C93913081F09230D9F485B57D
:100D9000886085BD8281813001F18381813019F4C1
:100DA0008FB780688FBF80E008958FB58FBD8EB5F7
:100DB00088608EBD8281813081F79EB58181892BCB
:100DC0008EBDEBCF83B7886083BF8281813029F7E6
:100DD00093B78181892B83BFE0CF95B58181892B22
:100DE00085BDDBCF813009F444C020F1823001F5AC
:100DF0008091A600813009F4AFC0811160C095B523
:100E0000926095BD9091A9009111B1C061157105D5
:100E100009F453C080E090E030E821E038BF23BD02
:100E200008B607FEFDCF019668177907B9F745C0E8
:100E300081E008958091A400813009F476C0811189
:100E400039C093B7926093BF9091A70091119DC054
:100E50006115710591F180E090E032E021E038BF4A
:100E60002CBF08B601FEFDCF019668177907B9F7C8
:100E700024C08091A500813009F462C0811139C07D
:100E80009EB592609EBD9091A80091118CC0611595
:100E9000710599F080E090E040E121E030E048BF4A
:100EA0003BBD2ABD08B604FEFDCF01966817790741
:100EB000B1F703C0823009F487C080E00895823022
:100EC000E1F785B5846085BD8091A9008111A4C03A
:100ED0006115710591F380E090E030E82DE738BFAF
:100EE00023BD08B607FEFDCF019668177907B9F74D
:100EF000E4CF823011F78EB583608EBD8091A8005B
:100F0000811199C061157105C1F280E090E040E166
:100F10002DE730E048BF3BBD2ABD08B604FEFDCF3B
:100F2000019668177907B1F7C8CF8091A7008111A2
:100F30009BC082E088BF6CBF08B601FEFDCFBDCF6D
:100F40008091A800811197C080E188BF7BBD6ABDF8
:100F500008B601FEFDCFB1CF8091A90081117DC0FF
:100F600080E888BF63BD08B607FEFDCFA6CF9130ED
:100F700009F0A3CF20E828BF93BD99B7906899BF27
:100F800050939C0040939B000895913009F095CFB9
:100F900022E028BF9CBF99B7926099BF5093A000F0
:100FA00040939F000895913009F087CF90E198BF5A
:100FB00021E030E03BBD2ABD99B7906199BF5093C5
:100FC0009E0040939D00089593B7936093BF9091C6
:100FD000A700911112C06115710509F46ECF80E070
:100FE00090E032E02DE738BF2CBF08B601FEFDCF00
:100FF000019668177907B9F760CF913009F05DCF96
:1010000088BF8DE78CBF89B7826089BF5093A000ED
:1010100040939F0080E00895813009F04ECF80E832
:1010200088BF8DE783BD89B7806889BF50939C00D6
:1010300040939B0042CF813009F03FCF80E188BFD1
:101040008DE790E09BBD8ABD89B7806189BF5093D1
:101050009E0040939D0080E00895813009F02DCFDF
:1010600080E888BF63BDDFCF813009F026CF82E002
:1010700088BF6CBFC8CF813009F01FCF80E188BF27
:101080007BBD6ABDE1CF833010F480E0089581E03C
:101090000895813059F038F0823019F414BC80E0A2
:1010A000089581E0089512BE80E008951DBC1CBC27
:1010B00080E008950E946E080C944F090E94480930
:1010C00058F00E94410940F029F45F3F29F00C9448
:1010D000380951110C9483090C943E090E9460094F
:1010E00068F39923B1F3552391F3951B550BBB2757
:1010F000AA2762177307840738F09F5F5F4F220F9C
:10110000331F441FAA1FA9F335D00E2E3AF0E0E892
:1011100032D091505040E695001CCAF72BD0FE2FDC
:1011200029D0660F771F881FBB1F26173707480770
:10113000AB07B0E809F0BB0B802DBF01FF27935828
:101140005F4F3AF09E3F510578F00C9438090C94AB
:1011500083095F3FE4F3983ED4F3869577956795CE
:10116000B795F7959F5FC9F7880F911D969587955D
:1011700097F90895E1E0660F771F881FBB1F62177C
:1011800073078407BA0720F0621B730B840BBA0B3A
:10119000EE1F88F7E09508950E94680988F09F5730
:1011A00098F0B92F9927B751B0F0E1F0660F771F8B
:1011B000881F991F1AF0BA95C9F714C0B13091F081
:1011C0000E948209B1E008950C948209672F782F5C
:1011D0008827B85F39F0B93FCCF386957795679546
:1011E000B395D9F73EF490958095709561957F4FB2
:1011F0008F4F9F4F0895E89409C097FB3EF4909558
:101200008095709561957F4F8F4F9F4F9923A9F0DF
:10121000F92F96E9BB279395F6958795779567956E
:10122000B795F111F8CFFAF4BB0F11F460FF1BC0B2
:101230006F5F7F4F8F4F9F4F16C0882311F096E945
:1012400011C0772321F09EE8872F762F05C06623F3
:1012500071F096E8862F70E060E02AF09A95660FAC
:10126000771F881FDAF7880F9695879597F9089565
:1012700097F99F6780E870E060E008959FEF80EC49
:10128000089500240A9416161706180609060895EC
:1012900000240A9412161306140605060895092E52
:1012A0000394000C11F4882352F0BB0F40F4BF2BC1
:1012B00011F460FF04C06F5F7F4F8F4F9F4F089501
:1012C00057FD9058440F551F59F05F3F71F04795F7
:1012D000880F97FB991F61F09F3F79F087950895DC
:1012E000121613061406551FF2CF4695F1DF08C0FB
:1012F000161617061806991FF1CF86957105610518
:1013000008940895E894BB2766277727CB0197F9BF
:1013100008950E949C090C944F090E94410938F0DD
:101320000E94480920F0952311F00C9438090C9480
:101330003E0911240C9483090E94600970F3959F63
:10134000C1F3950F50E0551F629FF001729FBB27BC
:10135000F00DB11D639FAA27F00DB11DAA1F649F58
:101360006627B00DA11D661F829F2227B00DA11D0B
:10137000621F739FB00DA11D621F839FA00D611D91
:10138000221F749F3327A00D611D231F849F600DB2
:10139000211D822F762F6A2F11249F5750409AF0DB
:1013A000F1F088234AF0EE0FFF1FBB1F661F771F67
:1013B000881F91505040A9F79E3F510580F00C9432
:1013C00038090C9483095F3FE4F3983ED4F3869583
:1013D00077956795B795F795E7959F5FC1F7FE2BD2
:1013E000880F911D9695879597F90895F894FFCFEA
:1013F000010102016E016E016E030303011C131251
:0E140000011C1110010204020302050101008B
:00000001FF
