:100000000C942A000C947C010C94A3010C94CA015A
:100010000C9447000C9447000C9447000C94560035
:100020000C9447000C9447000C9447000C94470034
:100030000C9447000C9447000C9447000C94470024
:100040000C9486000C9447000C9447000C944700D5
:100050000C94470011241FBECFE5D8E0DEBFCDBF12
:1000600010E0A0E6B0E0E6EEF3E002C005900D92ED
:10007000A036B107D9F720E0A0E6B0E001C01D929C
:10008000A936B207E1F70E9449000C94F1010C94E3
:1000900000008FE790E09BBD8ABD1FBC8DE08EBD48
:1000A00080E88FBF8D9A80E189BFFFCF1F920F92AA
:1000B0000FB60F9211248F939F9380916000882335
:1000C00099F0813051F480E890E09BBD8ABD92B3F5
:1000D00080E2892782BB109260009F918F910F90E0
:1000E0000FBE0F901F9018958FE790E09BBD8ABDC3
:1000F00092B380E2892782BB81E0809360009F9168
:100100008F910F900FBE0F901F9018951F920F9216
:100110000FB60F9211242F933F934F935F936F93DA
:100120007F938F939F93AF93BF93EF93FF9361E080
:1001300070E08AE190E00E94BF008AE190E00E94B6
:10014000400188E088BF8091610090916200892B16
:1001500029F0E0916100F09162000995FF91EF9123
:10016000BF91AF919F918F917F916F915F914F91CF
:100170003F912F910F900FBE0F901F9018958032D6
:10018000F0F4982F97708695869586958F5B8334CB
:10019000C1F0843409F442C0823479F14AB321E0D9
:1001A00030E061111FC0B90102C0660F771F9A9538
:1001B000E2F7CB01809584238ABB80E0089581E03B
:1001C000089544B321E030E0611138C0B90102C0A4
:1001D000660F771F9A95E2F7CB018095842384BB45
:1001E00080E00895B90102C0660F771F9A95E2F783
:1001F000CB01842B8ABB80E0089547B321E030E037
:10020000611127C0B90102C0660F771F9A95E2F706
:10021000CB018095842387BB80E0089541B321E022
:1002200030E0662309F1B90102C0660F771F9A9585
:10023000E2F7CB01842B81BB80E00895B90102C0B5
:10024000660F771F9A95E2F7CB01842B84BB80E081
:100250000895B90102C0660F771F9A95E2F7CB01A6
:10026000842B87BB80E00895B90102C0660F771F19
:100270009A95E2F7CB018095842381BB80E00895B5
:100280008032B8F4282F27708695869586958F5BE7
:10029000833489F0843429F18234C1F03BB381E0A6
:1002A00090E001C0880F2A95EAF783278BBB80E096
:1002B000089581E0089535B381E090E001C0880F92
:1002C0002A95EAF7832785BB80E0089538B381E05B
:1002D00090E001C0880F2A95EAF7832788BB80E069
:1002E000089532B381E090E001C0880F2A95EAF7C3
:1002F000832782BB80E008951F920F920FB60F9262
:1003000011242F933F934F935F936F937F938F931A
:100310009F93AF93BF93EF93FF93E0916700F091AA
:1003200068000995FF91EF91BF91AF919F918F91D7
:100330007F916F915F914F913F912F910F900FBEE1
:100340000F901F9018951F920F920FB60F921124C5
:100350002F933F934F935F936F937F938F939F93CD
:10036000AF93BF93EF93FF93E0916500F091660028
:100370000995FF91EF91BF91AF919F918F917F91DF
:100380006F915F914F913F912F910F900FBE0F9002
:100390001F9018951F920F920FB60F9211242F9352
:1003A0003F934F935F936F937F938F939F93AF93FD
:1003B000BF93EF93FF93E0916300F0916400099580
:1003C000FF91EF91BF91AF919F918F917F916F912D
:1003D0005F914F913F912F910F900FBE0F901F9003
:0603E0001895F894FFCF10
:00000001FF
